{
  "_format": "hh-sol-artifact-1",
  "contractName": "WavePortal",
  "sourceName": "contracts/WavePortal.sol",
  "abi": [
    {
      "inputs": [],
      "stateMutability": "nonpayable",
      "type": "constructor"
    },
    {
      "anonymous": false,
      "inputs": [
        {
          "indexed": true,
          "internalType": "address",
          "name": "from",
          "type": "address"
        },
        {
          "indexed": false,
          "internalType": "uint256",
          "name": "timestamp",
          "type": "uint256"
        },
        {
          "indexed": false,
          "internalType": "string",
          "name": "message",
          "type": "string"
        }
      ],
      "name": "NewWave",
      "type": "event"
    },
    {
      "inputs": [],
      "name": "getAllWaves",
      "outputs": [
        {
          "components": [
            {
              "internalType": "address",
              "name": "waver",
              "type": "address"
            },
            {
              "internalType": "string",
              "name": "message",
              "type": "string"
            },
            {
              "internalType": "uint256",
              "name": "timestamp",
              "type": "uint256"
            }
          ],
          "internalType": "struct WavePortal.Wave[]",
          "name": "",
          "type": "tuple[]"
        }
      ],
      "stateMutability": "view",
      "type": "function"
    },
    {
      "inputs": [],
      "name": "getTotalWaves",
      "outputs": [
        {
          "internalType": "uint256",
          "name": "",
          "type": "uint256"
        }
      ],
      "stateMutability": "view",
      "type": "function"
    },
    {
      "inputs": [
        {
          "internalType": "address",
          "name": "_addr",
          "type": "address"
        }
      ],
      "name": "getWavesBySender",
      "outputs": [
        {
          "internalType": "uint256",
          "name": "",
          "type": "uint256"
        }
      ],
      "stateMutability": "view",
      "type": "function"
    },
    {
      "inputs": [
        {
          "internalType": "string",
          "name": "_message",
          "type": "string"
        }
      ],
      "name": "wave",
      "outputs": [],
      "stateMutability": "nonpayable",
      "type": "function"
    },
    {
      "inputs": [
        {
          "internalType": "address",
          "name": "",
          "type": "address"
        }
      ],
      "name": "wavesBySender",
      "outputs": [
        {
          "internalType": "uint256",
          "name": "",
          "type": "uint256"
        }
      ],
      "stateMutability": "view",
      "type": "function"
    }
  ],
  "bytecode": "0x60806040523480156200001157600080fd5b506200005d6040518060400160405280600a81526020017f456c6c6f206d6174652e000000000000000000000000000000000000000000008152506200006360201b6200059c1760201c565b620001f7565b62000103816040516024016200007a919062000170565b6040516020818303038152906040527f41304fac000000000000000000000000000000000000000000000000000000007bffffffffffffffffffffffffffffffffffffffffffffffffffffffff19166020820180517bffffffffffffffffffffffffffffffffffffffffffffffffffffffff83818316178352505050506200010660201b60201c565b50565b60008151905060006a636f6e736f6c652e6c6f679050602083016000808483855afa5050505050565b60006200013c8262000194565b6200014881856200019f565b93506200015a818560208601620001b0565b6200016581620001e6565b840191505092915050565b600060208201905081810360008301526200018c81846200012f565b905092915050565b600081519050919050565b600082825260208201905092915050565b60005b83811015620001d0578082015181840152602081019050620001b3565b83811115620001e0576000848401525b50505050565b6000601f19601f8301169050919050565b610f5880620002076000396000f3fe608060405234801561001057600080fd5b50600436106100575760003560e01c8063449d46c01461005c5780634f3e94531461007857806367130937146100a85780639a2cdc08146100d8578063bd43a908146100f6575b600080fd5b6100766004803603810190610071919061097e565b610114565b005b610092600480360381019061008d9190610955565b610321565b60405161009f9190610c2f565b60405180910390f35b6100c260048036038101906100bd9190610955565b6103e8565b6040516100cf9190610c2f565b60405180910390f35b6100e0610400565b6040516100ed9190610c2f565b60405180910390f35b6100fe61044b565b60405161010b9190610b46565b60405180910390f35b60016000808282546101269190610d36565b9250508190555061016d6040518060400160405280601681526020017f257320776176656420772f206d657373616765202573000000000000000000008152503383610635565b600260405180606001604052803373ffffffffffffffffffffffffffffffffffffffff16815260200183815260200142815250908060018154018082558091505060019003906000526020600020906003020160009091909190915060008201518160000160006101000a81548173ffffffffffffffffffffffffffffffffffffffff021916908373ffffffffffffffffffffffffffffffffffffffff160217905550602082015181600101908051906020019061022c929190610835565b5060408201518160020155505060018060003373ffffffffffffffffffffffffffffffffffffffff1673ffffffffffffffffffffffffffffffffffffffff16815260200190815260200160002060008282546102889190610d36565b925050819055506102ce6040518060400160405280600d81526020017f2573206861732077617665642100000000000000000000000000000000000000815250336106d4565b3373ffffffffffffffffffffffffffffffffffffffff167f5f7e16dc676677766a70e9c5628aa6c54ddb8b6e5188e2ae1e1f17f1ffbea7164283604051610316929190610c4a565b60405180910390a250565b60006103a16040518060400160405280601581526020017f73656e6465722077617665642025642074696d65730000000000000000000000815250600160008573ffffffffffffffffffffffffffffffffffffffff1673ffffffffffffffffffffffffffffffffffffffff16815260200190815260200160002054610770565b600160008373ffffffffffffffffffffffffffffffffffffffff1673ffffffffffffffffffffffffffffffffffffffff168152602001908152602001600020549050919050565b60016020528060005260406000206000915090505481565b60006104436040518060400160405280601781526020017f5765206861766520256420746f74616c20776176657321000000000000000000815250600054610770565b600054905090565b60606002805480602002602001604051908101604052809291908181526020016000905b8282101561059357838290600052602060002090600302016040518060600160405290816000820160009054906101000a900473ffffffffffffffffffffffffffffffffffffffff1673ffffffffffffffffffffffffffffffffffffffff1673ffffffffffffffffffffffffffffffffffffffff1681526020016001820180546104f890610e0a565b80601f016020809104026020016040519081016040528092919081815260200182805461052490610e0a565b80156105715780601f1061054657610100808354040283529160200191610571565b820191906000526020600020905b81548152906001019060200180831161055457829003601f168201915b505050505081526020016002820154815250508152602001906001019061046f565b50505050905090565b610632816040516024016105b09190610b68565b6040516020818303038152906040527f41304fac000000000000000000000000000000000000000000000000000000007bffffffffffffffffffffffffffffffffffffffffffffffffffffffff19166020820180517bffffffffffffffffffffffffffffffffffffffffffffffffffffffff838183161783525050505061080c565b50565b6106cf83838360405160240161064d93929190610bba565b6040516020818303038152906040527fe0e9ad4f000000000000000000000000000000000000000000000000000000007bffffffffffffffffffffffffffffffffffffffffffffffffffffffff19166020820180517bffffffffffffffffffffffffffffffffffffffffffffffffffffffff838183161783525050505061080c565b505050565b61076c82826040516024016106ea929190610b8a565b6040516020818303038152906040527f319af333000000000000000000000000000000000000000000000000000000007bffffffffffffffffffffffffffffffffffffffffffffffffffffffff19166020820180517bffffffffffffffffffffffffffffffffffffffffffffffffffffffff838183161783525050505061080c565b5050565b6108088282604051602401610786929190610bff565b6040516020818303038152906040527f9710a9d0000000000000000000000000000000000000000000000000000000007bffffffffffffffffffffffffffffffffffffffffffffffffffffffff19166020820180517bffffffffffffffffffffffffffffffffffffffffffffffffffffffff838183161783525050505061080c565b5050565b60008151905060006a636f6e736f6c652e6c6f679050602083016000808483855afa5050505050565b82805461084190610e0a565b90600052602060002090601f01602090048101928261086357600085556108aa565b82601f1061087c57805160ff19168380011785556108aa565b828001600101855582156108aa579182015b828111156108a957825182559160200191906001019061088e565b5b5090506108b791906108bb565b5090565b5b808211156108d45760008160009055506001016108bc565b5090565b60006108eb6108e684610c9f565b610c7a565b90508281526020810184848401111561090357600080fd5b61090e848285610dc8565b509392505050565b60008135905061092581610f0b565b92915050565b600082601f83011261093c57600080fd5b813561094c8482602086016108d8565b91505092915050565b60006020828403121561096757600080fd5b600061097584828501610916565b91505092915050565b60006020828403121561099057600080fd5b600082013567ffffffffffffffff8111156109aa57600080fd5b6109b68482850161092b565b91505092915050565b60006109cb8383610ad8565b905092915050565b6109dc81610d8c565b82525050565b6109eb81610d8c565b82525050565b60006109fc82610ce0565b610a068185610d03565b935083602082028501610a1885610cd0565b8060005b85811015610a545784840389528151610a3585826109bf565b9450610a4083610cf6565b925060208a01995050600181019050610a1c565b50829750879550505050505092915050565b6000610a7182610ceb565b610a7b8185610d14565b9350610a8b818560208601610dd7565b610a9481610efa565b840191505092915050565b6000610aaa82610ceb565b610ab48185610d25565b9350610ac4818560208601610dd7565b610acd81610efa565b840191505092915050565b6000606083016000830151610af060008601826109d3565b5060208301518482036020860152610b088282610a66565b9150506040830151610b1d6040860182610b28565b508091505092915050565b610b3181610dbe565b82525050565b610b4081610dbe565b82525050565b60006020820190508181036000830152610b6081846109f1565b905092915050565b60006020820190508181036000830152610b828184610a9f565b905092915050565b60006040820190508181036000830152610ba48185610a9f565b9050610bb360208301846109e2565b9392505050565b60006060820190508181036000830152610bd48186610a9f565b9050610be360208301856109e2565b8181036040830152610bf58184610a9f565b9050949350505050565b60006040820190508181036000830152610c198185610a9f565b9050610c286020830184610b37565b9392505050565b6000602082019050610c446000830184610b37565b92915050565b6000604082019050610c5f6000830185610b37565b8181036020830152610c718184610a9f565b90509392505050565b6000610c84610c95565b9050610c908282610e3c565b919050565b6000604051905090565b600067ffffffffffffffff821115610cba57610cb9610ecb565b5b610cc382610efa565b9050602081019050919050565b6000819050602082019050919050565b600081519050919050565b600081519050919050565b6000602082019050919050565b600082825260208201905092915050565b600082825260208201905092915050565b600082825260208201905092915050565b6000610d4182610dbe565b9150610d4c83610dbe565b9250827fffffffffffffffffffffffffffffffffffffffffffffffffffffffffffffffff03821115610d8157610d80610e6d565b5b828201905092915050565b6000610d9782610d9e565b9050919050565b600073ffffffffffffffffffffffffffffffffffffffff82169050919050565b6000819050919050565b82818337600083830152505050565b60005b83811015610df5578082015181840152602081019050610dda565b83811115610e04576000848401525b50505050565b60006002820490506001821680610e2257607f821691505b60208210811415610e3657610e35610e9c565b5b50919050565b610e4582610efa565b810181811067ffffffffffffffff82111715610e6457610e63610ecb565b5b80604052505050565b7f4e487b7100000000000000000000000000000000000000000000000000000000600052601160045260246000fd5b7f4e487b7100000000000000000000000000000000000000000000000000000000600052602260045260246000fd5b7f4e487b7100000000000000000000000000000000000000000000000000000000600052604160045260246000fd5b6000601f19601f8301169050919050565b610f1481610d8c565b8114610f1f57600080fd5b5056fea2646970667358221220d88117a716216261ed58b7d6938bee2230b6126f612b85a3e2cb7586bf3edccb64736f6c63430008040033",
  "linkReferences": {},
  "deployedLinkReferences": {}
}